:100000000C9417010C942B010C942B010C942B01D4
:100010000C942B010C942B010C942B010C942B01B0
:100020000C942B010C942B010C942B010C942B01A0
:100030000C942B010C942B010C942B010C942B0190
:100040000C942B010C942B010C942B010C942B0180
:100050000C942B010C942B010C942B010C94B501E6
:100060000C942B010C942B010C942B010C942B0160
:100070000C942B010C942B010C942B010C942B0150
:100080000C942B010C942B010C942B010C942B0140
:100090000C942B010C942B010C942B010C942B0130
:1000A0000C942B010C942B010C942B010C942B0120
:1000B0000C942B010C942B010C942B010C942B0110
:1000C0000C942B010C942B010C942B010C942B0100
:1000D0000C942B010C942B010C942B010C942B01F0
:1000E0000C942B010C9478010C947F010C94590111
:1000F0000C94A1010C9493010C94A5010C9497010C
:100100000C94AB010C949D010C947C010C94740133
:100110000C948F010C9470010C94AF010C945E014F
:100120000C9485010C948901000021002400270013
:100130002A002D00300033000101000004010701F6
:100140000A0100002200250028002B002E003100AB
:10015000340002010000050108010B010505050539
:10016000070508080808020202020A0A080804042F
:10017000040401010101010101010303030303035D
:100180000303040707070C0C0C0C0C0C0C0C0202EC
:10019000020206060606060606060B0B0B0B0B0BE9
:1001A0000B0B010210202008081020401020408076
:1001B000020102010804020101020408102040802B
:1001C00080402010080402018004020180402010B9
:1001D0000804020108040201010204081020408002
:1001E000010204081020408000000A0B02090C0DD7
:1001F0000E080703040100000000000000000000DA
:1002000000000000000000000000000000000000EE
:1002100000000000121110000000000000000000AB
:100220000000000000000000000000000000112499
:100230001FBECFEFD1E2DEBFCDBF00E00CBF22E09A
:10024000A0E0B2E001C01D92A731B207E1F70E9421
:10025000FF010C9441030C940000382FEEEEF1E006
:100260008491E8EAF1E02491E2E6F1E094919923A7
:1002700009F435C0882311F181508231F8F4E82F58
:10028000F0E08827E95BFE4F8F4F0C94390378012B
:100290007C015901700174015E017F0185018901B2
:1002A0008F01930197019D01A1015E01A501AB01A1
:1002B000AF01809180008F7780938000E92FF0E07C
:1002C000EE0FFF1FEE5BFE4FA591B4918FB7F89430
:1002D000EC91311148C020952E232C938FBF0895A7
:1002E000809180008F7DE8CF80918000877FE4CF70
:1002F00084B58F7784BDE2CF84B58F7DFBCF8091AD
:10030000B0008F778093B000D9CF8091B0008F7DFF
:10031000F9CF809190008F7780939000CFCF80911C
:1003200090008F7DF9CF80919000877FF5CF8091ED
:10033000A0008F778093A000C1CF8091A0008F7D17
:10034000F9CF8091A000877FF5CF809120018F7732
:1003500080932001B3CF809120018F7DF9CF8091D0
:100360002001877FF5CF2E2BB8CF1F920F920FB6AB
:100370000F9211242F933F938F939F93AF93BF932B
:100380008091130290911402A0911502B09116026F
:100390003091120223E0230F2D3758F50196A11D4D
:1003A000B11D209312028093130290931402A09324
:1003B0001502B093160280910E0290910F02A09147
:1003C0001002B09111020196A11DB11D80930E0281
:1003D00090930F02A0931002B0931102BF91AF91BE
:1003E0009F918F913F912F910F900FBE0F901F9073
:1003F000189526E8230F0296A11DB11DD2CF78943F
:1004000084B5826084BD84B5816084BD85B5826019
:1004100085BD85B5816085BD80916E0081608093CA
:100420006E00109281008091810082608093810033
:100430008091810081608093810080918000816043
:10044000809380008091B10084608093B10080919E
:10045000B00081608093B0008091910082608093B1
:100460009100809191008160809391008091900033
:100470008160809390008091A10082608093A100B0
:100480008091A10081608093A1008091A000816093
:100490008093A0008091210182608093210180914E
:1004A00021018160809321018091200181608093EE
:1004B000200180917A00846080937A0080917A0094
:1004C000826080937A0080917A00816080937A00C4
:1004D00080917A00806880937A001092C100E8EAE7
:1004E000F1E02491E2E6F1E08491882399F090E034
:1004F000880F991FFC01E85DFE4FA591B491FC01A6
:10050000EE5BFE4F859194918FB7F894EC91E22BBE
:10051000EC938FBF80E00E942D012FB7F89480915B
:10052000130290911402A0911502B09116022FBFF0
:100530008093060290930702A0930802B0930902E9
:1005400080E4382E90E0892E90E0992E22E0A22EB1
:10055000B12C01E010E080917B00877F80937B00CD
:1005600030927C0080917A00806480937A00809140
:100570007A0086FDFCCFC0917800D09179008FB7CA
:10058000F8944090130250901402609015027090FD
:1005900016028FBF40920A0250920B0260920C0228
:1005A00070920D028091060290910702A0910802BC
:1005B000B091090273016201C81AD90AEA0AFB0A5A
:1005C000C0920202D0920302E0920402F09205026D
:1005D000809100029091010281309105A9F048F0CC
:1005E000029781F18114910409F4B5CF0E940000B3
:1005F000B2CF80E00E942D01C835D2409CF7109305
:10060000010200930002EECF80E00E942D01CB3862
:10061000D24024F0109201021092000289EEC81616
:1006200083E0D806E104F104E8F2B0920102A0925E
:1006300000024092060250920702609208027092F5
:100640000902D0CF81E00E942D01CB38D24024F0A6
:10065000109201021092000281EDC81687E0D806C0
:10066000E104F10408F4BECF1093010200930002EC
:10067000E0CFEE0FFF1F881F8BBF0790F691E02D94
:060680001994F894FFCF6D
:00000001FF
